{
  "contractName": "LotterEth",
  "abi": [
    {
      "constant": true,
      "inputs": [],
      "name": "ticketPrice",
      "outputs": [
        {
          "name": "",
          "type": "uint256"
        }
      ],
      "payable": false,
      "stateMutability": "view",
      "type": "function"
    },
    {
      "constant": true,
      "inputs": [],
      "name": "jackpotNeeded",
      "outputs": [
        {
          "name": "",
          "type": "uint256"
        }
      ],
      "payable": false,
      "stateMutability": "view",
      "type": "function"
    },
    {
      "constant": true,
      "inputs": [],
      "name": "ticketsBought",
      "outputs": [
        {
          "name": "",
          "type": "uint256"
        }
      ],
      "payable": false,
      "stateMutability": "view",
      "type": "function"
    },
    {
      "constant": true,
      "inputs": [
        {
          "name": "",
          "type": "uint256"
        }
      ],
      "name": "players",
      "outputs": [
        {
          "name": "",
          "type": "address"
        }
      ],
      "payable": false,
      "stateMutability": "view",
      "type": "function"
    },
    {
      "inputs": [],
      "payable": false,
      "stateMutability": "nonpayable",
      "type": "constructor"
    },
    {
      "anonymous": false,
      "inputs": [
        {
          "indexed": false,
          "name": "_buyer",
          "type": "address"
        },
        {
          "indexed": false,
          "name": "_amount",
          "type": "uint256"
        }
      ],
      "name": "Purchase",
      "type": "event"
    },
    {
      "anonymous": false,
      "inputs": [
        {
          "indexed": false,
          "name": "_winner",
          "type": "address"
        }
      ],
      "name": "AnnounceWinner",
      "type": "event"
    },
    {
      "constant": false,
      "inputs": [
        {
          "name": "quantity",
          "type": "uint256"
        }
      ],
      "name": "buyTickets",
      "outputs": [],
      "payable": true,
      "stateMutability": "payable",
      "type": "function"
    }
  ],
  "bytecode": "0x6080604052670de0b6b3a7640000600255600a60035534801561002157600080fd5b5033600160006101000a81548173ffffffffffffffffffffffffffffffffffffffff021916908373ffffffffffffffffffffffffffffffffffffffff16021790555060006004819055506104558061007a6000396000f30060806040526004361061006d576000357c0100000000000000000000000000000000000000000000000000000000900463ffffffff1680631209b1f6146100725780632f3666371461009d5780633ee48e59146100bd578063af4a047a146100e8578063f71d96cb14610113575b600080fd5b34801561007e57600080fd5b50610087610180565b6040518082815260200191505060405180910390f35b6100bb60048036038101908080359060200190929190505050610186565b005b3480156100c957600080fd5b506100d26102b4565b6040518082815260200191505060405180910390f35b3480156100f457600080fd5b506100fd6102ba565b6040518082815260200191505060405180910390f35b34801561011f57600080fd5b5061013e600480360381019080803590602001909291905050506102c0565b604051808273ffffffffffffffffffffffffffffffffffffffff1673ffffffffffffffffffffffffffffffffffffffff16815260200191505060405180910390f35b60025481565b600060025482023414151561019a57600080fd5b600454600354038211156101ad57600080fd5b600090505b818110156102285733600080600454815260200190815260200160002060006101000a81548173ffffffffffffffffffffffffffffffffffffffff021916908373ffffffffffffffffffffffffffffffffffffffff160217905550600460008154600101919050819055508060010190506101b2565b7f2499a5330ab0979cc612135e7883ebc3cd5c9f7a8508f042540c34723348f6323383604051808373ffffffffffffffffffffffffffffffffffffffff1673ffffffffffffffffffffffffffffffffffffffff1681526020018281526020019250505060405180910390a160035460045414156102b0576102a76102f3565b6102af6103e9565b5b5050565b60035481565b60045481565b60006020528060005260406000206000915054906101000a900473ffffffffffffffffffffffffffffffffffffffff1681565b6000806102fe6103f3565b915060008083815260200190815260200160002060009054906101000a900473ffffffffffffffffffffffffffffffffffffffff1690507fcfa5d1877ae609f3a62e72e02e3fcf9d3da417038e82e660b155177beaa6b16581604051808273ffffffffffffffffffffffffffffffffffffffff1673ffffffffffffffffffffffffffffffffffffffff16815260200191505060405180910390a18073ffffffffffffffffffffffffffffffffffffffff166108fc600354600254029081150290604051600060405180830381858888f193505050501580156103e4573d6000803e3d6000fd5b505050565b6000600481905550565b60006003544244604051808381526020018281526020019250505060405180910390206001900481151561042357fe5b069050905600a165627a7a7230582092f60bd43fd1e41544cc368446bbe5d5957fbd6e568a913f5195251fd67fe7fd0029",
  "source": "pragma solidity ^0.4.11;\n\ncontract LotterEth {\n\n    mapping(uint => address) public players;\n    address owner;\n    uint public ticketPrice = 1 ether;\n    uint public jackpotNeeded = 10;\n    uint public ticketsBought;\n\n    constructor() public {\n        owner = msg.sender;\n        ticketsBought = 0;\n    }\n\n    // events\n    event Purchase(address _buyer, uint _amount);\n    event AnnounceWinner(address _winner);\n\n    function buyTickets(uint quantity) public payable {\n        if (msg.value != quantity*ticketPrice) {        //if caller sent wrong amount of ether, revert\n            revert();\n        }\n\n        if (quantity > jackpotNeeded - ticketsBought) {     //if caller is trying to buy more tickets than are available, revert\n            revert();\n        }\n\n        for (uint i = 0; i < quantity; ++i) {\n            players[ticketsBought] = msg.sender;\n            ++ticketsBought;\n        }\n\n        emit Purchase(msg.sender, quantity);\n\n        if (ticketsBought == jackpotNeeded) {     //if all tickets have been bought, choose a winner\n            chooseWinner();\n            resetLottery();\n        }\n\n    }\n\n    function chooseWinner() private {\n        uint rand = random();\n        address winner = players[rand];\n        emit AnnounceWinner(winner);\n        winner.transfer(ticketPrice*jackpotNeeded);\n    }\n\n    function resetLottery() private {\n        ticketsBought = 0;\n    }\n\n    function random() private view returns (uint) {\n        return uint(uint256(keccak256(block.timestamp, block.difficulty)) % jackpotNeeded);     // not the best prng - TODO: find a way to make a better one\n    }\n\n    //event ViewJackpot (uint256 _jackpot);\n\n    //function currJackpot() public view returns (uint256) {\n        //emit ViewJackpot(address(this).balance);\n        //return address(this).balance;\n    //}\n}\n",
  "sourcePath": "/Users/ryanjohnston/Programming/LTH/lottereth/contracts/LotterEth.sol",
  "compiler": {
    "name": "solc",
    "version": "0.4.23+commit.124ca40d.Emscripten.clang"
  },
  "schemaVersion": "2.0.0",
  "updatedAt": "2018-05-23T09:14:29.629Z"
}