{
  "contractName": "LotterEth",
  "abi": [
    {
      "inputs": [],
      "payable": false,
      "stateMutability": "nonpayable",
      "type": "constructor"
    },
    {
      "anonymous": false,
      "inputs": [
        {
          "indexed": false,
          "name": "_buyer",
          "type": "address"
        },
        {
          "indexed": false,
          "name": "_amount",
          "type": "uint256"
        }
      ],
      "name": "Purchase",
      "type": "event"
    },
    {
      "constant": false,
      "inputs": [
        {
          "name": "quantity",
          "type": "uint256"
        }
      ],
      "name": "buyTickets",
      "outputs": [],
      "payable": true,
      "stateMutability": "payable",
      "type": "function"
    }
  ],
  "bytecode": "0x6080604052670de0b6b3a7640000600255600a60035534801561002157600080fd5b5033600160006101000a81548173ffffffffffffffffffffffffffffffffffffffff021916908373ffffffffffffffffffffffffffffffffffffffff16021790555060006004819055506102818061007a6000396000f300608060405260043610610041576000357c0100000000000000000000000000000000000000000000000000000000900463ffffffff1680632f36663714610046575b600080fd5b61006460048036038101908080359060200190929190505050610066565b005b600060025482023414151561007a57600080fd5b6004546003540382111561008d57600080fd5b600090505b818110156101085733600080600454815260200190815260200160002060006101000a81548173ffffffffffffffffffffffffffffffffffffffff021916908373ffffffffffffffffffffffffffffffffffffffff16021790555060046000815460010191905081905550806001019050610092565b7f2499a5330ab0979cc612135e7883ebc3cd5c9f7a8508f042540c34723348f6323383604051808373ffffffffffffffffffffffffffffffffffffffff1673ffffffffffffffffffffffffffffffffffffffff1681526020018281526020019250505060405180910390a160035460045414156101885761018761018c565b5b5050565b60008061019761021f565b915060008083815260200190815260200160002060009054906101000a900473ffffffffffffffffffffffffffffffffffffffff1690508073ffffffffffffffffffffffffffffffffffffffff166108fc600354600254029081150290604051600060405180830381858888f1935050505015801561021a573d6000803e3d6000fd5b505050565b60006003544244604051808381526020018281526020019250505060405180910390206001900481151561024f57fe5b069050905600a165627a7a72305820d2daf2cf66f73af2ebdf3c8f340b8cd1fe45d7e1144bbe810256e077d5e6b07e0029",
  "source": "pragma solidity ^0.4.11;\n\ncontract LotterEth {\n    \n    mapping(uint => address) players;\n    address owner;\n    uint ticketPrice = 1 ether;\n    uint playersNeeded = 10;\n    uint ticketsBought;\n    \n    constructor() public {\n        owner = msg.sender;\n        ticketsBought = 0;\n    }\n    \n    // events\n    event Purchase(address _buyer, uint _amount);\n    \n    function buyTickets(uint quantity) public payable {\n        if (msg.value != quantity * ticketPrice) {        //if caller sent wrong amount of ether, revert\n            revert();\n        }\n        \n        if (quantity > playersNeeded - ticketsBought) {     //if caller is trying to buy more tickets than are available, revert\n            revert();\n        }\n        \n        for (uint i = 0; i < quantity; ++i) {\n            players[ticketsBought] = msg.sender;\n            ++ticketsBought;\n        }\n        \n        emit Purchase(msg.sender, quantity);\n        \n        if (ticketsBought == playersNeeded) {     //if all tickets have been bought, choose a winner\n            chooseWinner();\n        }\n        \n    }\n    \n    function chooseWinner() private {\n        uint rand = random();\n        address winner = players[rand];\n        winner.transfer(ticketPrice*playersNeeded);\n    }\n    \n    function random() private view returns (uint) {\n        return uint(uint256(keccak256(block.timestamp, block.difficulty)) % playersNeeded);\n    }\n    \n    //event ViewJackpot (uint256 _jackpot);\n    \n    //function currJackpot() public view returns (uint256) {\n        //emit ViewJackpot(address(this).balance);\n        //return address(this).balance;\n    //}\n}\n",
  "sourcePath": "/Users/ryanjohnston/Programming/LTH/lottereth/contracts/LotterEth.sol",
  "compiler": {
    "name": "solc",
    "version": "0.4.23+commit.124ca40d.Emscripten.clang"
  },
  "schemaVersion": "2.0.0",
  "updatedAt": "2018-05-18T14:23:49.227Z"
}