{
  "contractName": "LotterEth",
  "abi": [
    {
      "constant": true,
      "inputs": [],
      "name": "ticketPrice",
      "outputs": [
        {
          "name": "",
          "type": "uint256"
        }
      ],
      "payable": false,
      "stateMutability": "view",
      "type": "function"
    },
    {
      "constant": true,
      "inputs": [],
      "name": "previousWinner",
      "outputs": [
        {
          "name": "",
          "type": "address"
        }
      ],
      "payable": false,
      "stateMutability": "view",
      "type": "function"
    },
    {
      "constant": true,
      "inputs": [],
      "name": "ticketsBought",
      "outputs": [
        {
          "name": "",
          "type": "uint256"
        }
      ],
      "payable": false,
      "stateMutability": "view",
      "type": "function"
    },
    {
      "constant": true,
      "inputs": [],
      "name": "totalTickets",
      "outputs": [
        {
          "name": "",
          "type": "uint256"
        }
      ],
      "payable": false,
      "stateMutability": "view",
      "type": "function"
    },
    {
      "inputs": [],
      "payable": false,
      "stateMutability": "nonpayable",
      "type": "constructor"
    },
    {
      "payable": true,
      "stateMutability": "payable",
      "type": "fallback"
    },
    {
      "constant": true,
      "inputs": [],
      "name": "ticketsLeft",
      "outputs": [
        {
          "name": "",
          "type": "uint256"
        }
      ],
      "payable": false,
      "stateMutability": "view",
      "type": "function"
    }
  ],
  "bytecode": "0x6080604052662386f26fc10000600355606460045534801561002057600080fd5b5033600160006101000a81548173ffffffffffffffffffffffffffffffffffffffff021916908373ffffffffffffffffffffffffffffffffffffffff1602179055506000600260006101000a81548173ffffffffffffffffffffffffffffffffffffffff021916908373ffffffffffffffffffffffffffffffffffffffff16021790555060006005819055506103da806100bb6000396000f30060806040526004361061006d576000357c0100000000000000000000000000000000000000000000000000000000900463ffffffff1680631209b1f6146101515780635c6059ee1461017c5780636cab5e5b146101d3578063af4a047a146101fe578063dd11247e14610229575b60008060006003543481151561007f57fe5b0492506003543481151561008f57fe5b0691506000821415156100a157600080fd5b600554600454038311156100b457600080fd5b600090505b8281101561012f5733600080600554815260200190815260200160002060006101000a81548173ffffffffffffffffffffffffffffffffffffffff021916908373ffffffffffffffffffffffffffffffffffffffff160217905550600560008154600101919050819055508060010190506100b9565b600454600554141561014c57610143610254565b61014b610328565b5b505050005b34801561015d57600080fd5b50610166610332565b6040518082815260200191505060405180910390f35b34801561018857600080fd5b50610191610338565b604051808273ffffffffffffffffffffffffffffffffffffffff1673ffffffffffffffffffffffffffffffffffffffff16815260200191505060405180910390f35b3480156101df57600080fd5b506101e861035e565b6040518082815260200191505060405180910390f35b34801561020a57600080fd5b5061021361036c565b6040518082815260200191505060405180910390f35b34801561023557600080fd5b5061023e610372565b6040518082815260200191505060405180910390f35b60008061025f610378565b915060008083815260200190815260200160002060009054906101000a900473ffffffffffffffffffffffffffffffffffffffff16905080600260006101000a81548173ffffffffffffffffffffffffffffffffffffffff021916908373ffffffffffffffffffffffffffffffffffffffff1602179055508073ffffffffffffffffffffffffffffffffffffffff166108fc600454600354029081150290604051600060405180830381858888f19350505050158015610323573d6000803e3d6000fd5b505050565b6000600581905550565b60035481565b600260009054906101000a900473ffffffffffffffffffffffffffffffffffffffff1681565b600060055460045403905090565b60055481565b60045481565b6000600454424460405180838152602001828152602001925050506040518091039020600190048115156103a857fe5b069050905600a165627a7a723058207e6f9853030186dbb44f57ae0b319540769179f757677737516ffc77411c87d60029",
  "source": "pragma solidity ^0.4.11;\n\ncontract LotterEth {\n\n    mapping(uint => address) players;\n    address owner;\n    address public previousWinner;\n    uint public ticketPrice = 0.01 ether;\n    uint public totalTickets = 100;\n    uint public ticketsBought;\n\n    constructor() public {\n        owner = msg.sender;\n        previousWinner = 0x0;\n        ticketsBought = 0;\n    }\n\n    // events\n    // event Purchase(address _buyer, uint _amount);\n    // event AnnounceWinner(address _winner);\n\n    function () public payable {\n        uint quantity = msg.value / ticketPrice;\n        uint remainder = msg.value % ticketPrice;\n\n        if (remainder != 0) {\n            revert();\n        }\n\n        if (quantity > (totalTickets - ticketsBought)) {\n            revert();\n        }\n\n        for (uint i = 0; i < quantity; ++i) {\n            players[ticketsBought] = msg.sender;\n            ++ticketsBought;\n        }\n\n        // emit Purchase(msg.sender, quantity);\n\n        if (ticketsBought == totalTickets) {     //if all tickets have been bought, choose a winner\n            chooseWinner();\n            resetLottery();\n        }\n    }\n\n    function chooseWinner() private {\n        uint rand = random();\n        address winner = players[rand];\n        previousWinner = winner;\n        // emit AnnounceWinner(winner);\n        winner.transfer(ticketPrice*totalTickets);\n    }\n\n    function resetLottery() private {\n        ticketsBought = 0;\n    }\n\n    function random() private view returns (uint) {\n        return uint(uint256(keccak256(block.timestamp, block.difficulty)) % totalTickets);     // not the best prng - TODO: find a way to make a better one\n    }\n\n    function ticketsLeft() public constant returns (uint) {\n        return totalTickets - ticketsBought;\n    }\n}\n",
  "sourcePath": "/Users/ryanjohnston/Programming/LTH/lottereth/contracts/LotterEth.sol",
  "compiler": {
    "name": "solc",
    "version": "0.4.23+commit.124ca40d.Emscripten.clang"
  },
  "schemaVersion": "2.0.0",
  "updatedAt": "2018-05-23T13:06:27.326Z"
}